:020000040800F2
:1000000000C00020B50400088D0400089104000819
:1000100095040008990400089D04000800000000F1
:10002000000000000000000000000000A104000823
:10003000A504000800000000A9040008AD040008A1
:10004000FD040008FD040008FD040008FD0400088C
:10005000FD040008FD040008FD040008FD0400087C
:10006000FD040008FD040008FD040008FD0400086C
:10007000FD040008FD040008FD040008FD0400085C
:10008000FD040008FD040008FD040008FD0400084C
:10009000FD040008FD040008FD040008FD0400083C
:1000A000FD040008FD040008FD040008FD0400082C
:1000B000FD040008FD040008FD040008FD0400081C
:1000C000FD040008FD040008FD040008FD0400080C
:1000D000FD040008FD040008FD040008FD040008FC
:1000E000FD040008FD040008FD040008FD040008EC
:1000F000FD040008FD040008FD040008FD040008DC
:10010000FD040008FD040008FD040008FD040008CB
:10011000FD040008FD040008FD040008FD040008BB
:10012000FD040008FD040008FD040008FD040008AB
:1001300000000000000000000000000000000000BF
:1001400000000000000000000000000000000000AF
:10015000000000000000000000000000000000009F
:10016000000000000000000000000000000000008F
:10017000000000000000000000000000000000007F
:10018000000000000000000000000000000000006F
:10019000000000000000000000000000000000005F
:1001A000000000000000000000000000000000004F
:1001B000000000000000000000000000000000003F
:1001C000000000000000000000000000000000002F
:1001D000000000000000000000000000000000001F
:0401E0005FF8E0F1F3
:1001E4000348044B834202D0034B03B118477047C2
:1001F4003C0400203C04002000000000054806499F
:100204000B1AD90F01EBA301491002D0034B03B120
:10021400184770473C0400203C0400200000000004
:1002240010B5064C237843B9FFF7DAFF044B13B13A
:100234000448AFF300800123237010BD3C04002068
:1002440000000000EC0B000808B5044B1BB1044986
:100254000448AFF30080BDE80840CFE70000000089
:1002640040040020EC0B0008002301461A461846FF
:1002740000F08EB838B50A4C0A4D641BA4100AD09D
:1002840004F18043013B05EB8305013C55F8043937
:100294009847002CF9D1BDE8384000F0ABBC00BF52
:1002A400380C0008340C000870B50D4E0D4D761B4B
:1002B400B61006D00024013455F8043B9847A642F2
:1002C400F9D1094E094D00F08FFC761BB61006D00B
:1002D4000024013455F8043B9847A642F9D170BD77
:1002E4002C0C00082C0C0008340C00082C0C000802
:1002F400F0B4860746D0541E002A3CD0CAB2034646
:1003040002E014F1FF3436D303F8012B9D07F8D132
:10031400032C29D9CDB245EA05250F2C45EA05451C
:1003240033D9A4F11006360903F1200707EB0617A9
:1003340003F1100242E9045542E902551032BA426F
:10034400F8D1721C14F00C0F03EB021204F00F0628
:1003540013D0331F23F003030433134442F8045B24
:100364009342FBD106F003042CB1C9B21C4403F838
:10037400011B9C42FBD1F0BC704734461346002C51
:10038400F3D1F8E714460346C2E71A462646E0E7E7
:10039400F0B4174C2568D5F848410CB365681F2D97
:1003A40023DC38B900206B1C0235636044F8251047
:1003B400F0BC7047012604EB850CCCF88820D4F8F7
:1003C400887106FA05F217430228C4F88871CCF83C
:1003D4000831E7D1D4F88C311A43C4F88C21E1E711
:1003E40005F5A674C5F84841D8E74FF0FF30DFE7BC
:1003F400040C000830B591B02422002107A8FFF7AF
:1004040077FF012400230222102506A8CDE900333A
:10041400CDE90233CDE90A450493069200F018F9B8
:1004240008B172B6FEE701460F240025002200231E
:100434006846CDE90045CDE90223049100F008FBAC
:1004440008B172B6FEE711B030BD00BF08B500F0C8
:1004540079F8FFF7CFFFFEE70A4B82B09A6942F0C2
:1004640001029A619A6902F001020092009ADA6923
:1004740042F08052DA61DB6903F080530193019BFF
:1004840002B0704700100240FEE700BFFEE700BF65
:10049400FEE700BFFEE700BFFEE700BF704700BFF6
:1004A400704700BF704700BF00F05EB8704700BFE0
:1004B400FFF7FCFF0B480C490C4A002302E0D45818
:1004C400C4500433C4188C42F9D3094A094C00239C
:1004D40001E013600432A242FBD3FFF7E5FEFFF70D
:1004E400B5FF7047000000203C040020380C0008D1
:1004F4003C0400205C040020FEE7000038B54FF403
:100504007A730D4A054611780C4AB3FBF1F312686D
:10051400B2FBF3F000F084F808B90F2D01D90120E3
:1005240038BD0446024629464FF0FF3000F040F83B
:10053400034B20461D6038BD3404002030040020E5
:1005440038040020074A08B51368032043F0100359
:10055400136000F01BF80F20FFF7D0FFFFF77CFFBC
:10056400002008BD00200240034A044B11681B7898
:100574000B441360704700BF58040020340400206B
:10058400014B1868704700BF580400204FF6FF0164
:10059400064A0302D06803F4E0630840034343F0CF
:1005A400BF6343F40033D360704700BF00ED00E045
:1005B400194B30B4DB68C3F30223C3F10705042DE0
:1005C40003F1040428BF0425062C19D94FF0FF3485
:1005D400033B9C4022EA04024FF0FF34AC4021EA82
:1005E40004019940002841EA02010CDB090100F1F1
:1005F4006040C9B200F5614080F8001330BC704718
:1006040000221346E8E7054B00F00F000901C9B2C8
:100614000344197630BC704700ED00E0FCEC00E0C8
:100624000138B0F1807F0DD230B4F02500220721CB
:10063400054B064C586084F82350104630BC9A6031
:10064400196070470120704710E000E000ED00E001
:10065400002800F0C3812DE9F04103680446DD075A
:1006640082B035D5A6494A6802F00C02042A00F08B
:10067400EF804A6802F00C02082A00F0E580636803
:10068400B3F5803F10D0002B00F00D81B3F5A02FFF
:1006940000F08F819A4B1A6822F480321A601A682B
:1006A40022F480221A6004E0954A136843F48033EC
:1006B4001360FFF765FF924E054605E0FFF760FF04
:1006C400401B642800F2EB8033689A03F6D5236854
:1006D4009F0728D58A4A516811F00C0F00F08E80CC
:1006E400516801F00C01082900F084802369002B73
:1006F40000F025810122834B814E1A60FFF740FFF1
:10070400054605E0FFF73CFF401B022800F2C780C6
:1007140033689807F6D53368626923F0F80343EA2F
:10072400C203336023681A071FD45D0741D5744B95
:10073400DA69D0007DD50025734B1A68D10540F1E4
:100744009D80E368012B00F00B81002B00F0C58035
:10075400052B6B4B1A6A00F0398122F001021A62F0
:100764001A6A22F004021A62FFE0A369002B50D037
:100774000122664B624E1A60FFF702FF054605E050
:10078400FFF7FEFE401B022800F28980736A9B0774
:10079400F6D55F4B5F4A1B68A2FB03235B0A0193F8
:1007A40000BF019B5A1E0192002BF9D123685D07FB
:1007B400BDD4E069D0B1524D6A6802F00C02082A37
:1007C40000F0E68002284FF00001534A00F008814F
:1007D4001160FFF7D5FE2C46054604E0FFF7D0FE76
:1007E400401B02285BD823689B01F7D4002002B089
:1007F400BDE8F0815268D6033FF578AF404A1268ED
:1008040095072FD52269012A2CD0012002B0BDE81A
:10081400F0813E4A3A4E1360FFF7B2FE054604E00B
:10082400FFF7AEFE401B022839D8736A9F07F7D43E
:10083400BCE7DA69012542F08052DA61DB6903F032
:1008440080530093009B77E74A68D0037FF517AF86
:100854002B4A126891037FF53BAF6268002A7FF44C
:1008640037AFD2E7264960690A6822F0F80242EA03
:10087400C0020A601A077FF558AF76E71A681F4668
:1008840042F480721A60FFF77BFE06463B68DA0585
:100894003FF557AFFFF774FE801B6428F6D9032099
:1008A40002B0BDE8F08103F1804303F504331A6814
:1008B4001E4622F480321A601A6822F480221A60DA
:1008C400FFF75EFE054604E0FFF75AFE401B64286E
:1008D400E5D833689B03F7D4F9E603F1804303F5C5
:1008E40004331A6A1F4622F001021A621A6A41F29C
:1008F400883822F004021A62FFF742FE064612E02C
:100904000010024000004242007000408004424255
:1009140030040020D34D621060004242FFF730FEE5
:10092400801B4045BBD83B6A9807F7D4002D3FF4A1
:1009340040AF444AD36923F08053D36139E7424A34
:10094400404E1360FFF71CFE054604E0FFF718FE57
:10095400401B0228A3D833689907F7D42368E2E63A
:10096400384A136A43F001031362FFF709FE41F2A8
:1009740088380646334F04E0FFF702FE801B4045EB
:100984008DD83B6A9B07F7D5002D3FF412AFD0E713
:1009940001283FF42CAF6B68226A03F48031914242
:1009A4007FF433AF606A03F47013181A18BF012080
:1009B4001DE703F18043A3F53C331A6842F4802217
:1009C4001A601A6842F480321A6072E642F0040235
:1009D4001A621A6A42F001021A62C6E701207047DD
:1009E4001160FFF7CDFD064605E0FFF7C9FD801B4A
:1009F40002283FF654AF2B689901F6D4236AB3F565
:100A0400803F05D16A68A16822F400320A436A6013
:100A140001200C4D616A6A680B4322F474120B497D
:100A240013436B600860FFF7ABFD2C46054605E0F9
:100A3400FFF7A6FD401B02283FF631AF23689A0159
:100A4400F6D5D3E600100240000042426000424264
:100A5400002800F0A180564A2DE9F04113680446AD
:100A640003F007038B420D460CD2136823F00703EF
:100A74000B431360136803F007038B4202D0012079
:100A8400BDE8F0812368980714D5590704D549496E
:100A94004A6842F4E0624A601A0704D545494A6844
:100AA40042F460524A604349A0684A6822F0F00266
:100AB40002434A60DB0720D562683E4B012A1B686B
:100AC4006CD0022A65D09807D9D53A4E41F28838BD
:100AD400736823F0030313437360FFF751FD074664
:100AE40004E0FFF74DFDC01B40455AD873686268A7
:100AF40003F00C03B3EB820FF3D12D4A136803F018
:100B04000703AB4209D9136823F007032B4313608F
:100B1400136803F00703AB42B1D12368590706D524
:100B24002449E0684A6822F4E06202434A601A07F2
:100B340007D5204A2169536823F4605343EAC1036B
:100B440053601C494A6802F00C03082B10D01A4B5E
:100B5400184A1A4852681A49C2F30312805C194AA7
:100B6400C34008681360FFF7C9FC0020BDE8F081AA
:100B74001548C2F38343C05CD30314D50E4B4A68B3
:100B840003FB00F31149C2F340428A5CB3FBF2F366
:100B9400DEE79E0199D472E7012070479F0394D445
:100BA4006DE703206CE70A4B03FB00F3D0E700BFBB
:100BB400002002400010024000127A00080C0008D5
:100BC4003804002030040020180C0008280C000809
:100BD40000093D00024B13B10248FFF745BB7047C3
:100BE4000000000079020008F8B500BFF8BC08BC9A
:100BF4009E467047F8B500BFF8BC08BC9E467047D7
:100C040008000020000000000000000001020304AE
:100C14000607080902030405060708090A0B0C0D58
:080C24000E0F10100102000088
:080C2C00D90B00084D0200087D
:040C3400250200088D
:100C3800080000200000000000000000F40200206E
:100C48005C030020C4030020000000000000000036
:100C5800000000000000000000000000000000008C
:100C6800000000000000000000000000000000007C
:100C7800000000000000000000000000000000006C
:100C8800000000000000000000000000000000005C
:100C9800000000000000000000000000000000004C
:100CA800000000000000000000000000000000003C
:100CB800000000000000000000000000000000002C
:100CC800000000000000000000000000000000001C
:100CD800000000000000000000000000000000000C
:100CE80001000000000000000E33CDAB34126DE6A9
:100CF800ECDE05000B000000000000000000000012
:100D080000000000000000000000000000000000DB
:100D180000000000000000000000000000000000CB
:100D280000000000000000000000000000000000BB
:100D380000000000000000000000000000000000AB
:0C1068000024F400010000001000000053
:04000005080004B536
:00000001FF
